:100000000C9404010C94ED070C941E080C944F08FA
:100010000C9480080C94B1080C94E2080C94130919
:100020000C9444090C9431010C9431010C9431016D
:100030000C9431010C9431010C9431010C94310178
:100040000C9431010C9431010C9431010C94310168
:100050000C9431010C9431010C9431010C9475090C
:100060000C9431010C946A020C9466030C943101D7
:100070000C9431010C9431010C9431010C94310138
:100080000C9431010C9431010C9431010C94310128
:100090000C94A9020C94A5030C9431010C94310129
:1000A0000C9431010C9431010C9431010C94310108
:1000B0000C9431010C9431010C9431010C943101F8
:1000C0000C9431010C9431010C9431010C94E80230
:1000D0000C94E4030C9431010C9427030C94230436
:1000E0000C94310100002100240027002A002D007B
:1000F0003000330001010000040107010A01000083
:100100002200250028002B002E00310034000201BF
:100110000000050108010B0100002000230026005B
:1001200029002C002F00320000010000030106010D
:10013000090105050505070508080808020202026D
:100140000A0A080804040404010101010101010173
:100150000303030303030303040707070C0C0C0C3E
:100160000C0C0C0C02020202060606060606060627
:100170000B0B0B0B0B0B0B0B0102102020080810B4
:100180002040102040800201020108040201010207
:1001900004081020408080402010080402018004E0
:1001A000020180402010080402010804020101023B
:1001B0000408102040800102040810204080000044
:1001C000090A02080B0C0D070603040100000000D9
:1001D000000000000000000000000000000000001F
:1001E0000000000000000000000011100F000000DF
:1001F00000000000000000000000000000000000FF
:10020000000000009305C90611241FBECFEFD1E204
:10021000DEBFCDBF00E00CBF13E0A0E0B2E0E8ED30
:10022000FDE500E00BBF02C007900D92A23AB107B6
:10023000D9F71BBE17E0A2EAB3E001C01D92A039B6
:10024000B107E1F712E0C8E0D2E004C02297FE0156
:100250000E94E62EC430D107C9F70E94582C0C9496
:10026000EA2E0C9400000F931F93CF93DF93689FA7
:100270008001699F100D789F100D1124C8010E9404
:100280004F01EC01009729F060E070E0A8010E94A6
:100290005A02CE01DF91CF911F910F910895CF9314
:1002A000DF93BC018230910510F462E070E0A09110
:1002B0008E07B0918F07ED01E0E0F0E040E050E004
:1002C00021C0888199818617970769F48A819B816B
:1002D000309719F09383828304C090938F078093A3
:1002E0008E07FE0134C06817790738F441155105AF
:1002F00019F08417950708F4AC01FE018A819B81EF
:100300009C01E9012097E9F641155105A9F1CA01BF
:10031000861B970B049708F4BA01E0E0F0E02AC0CE
:100320008D919C91119784179507F9F464177507BF
:1003300081F412968D919C911397309719F09383C5
:10034000828304C090938F0780938E07FD013296BD
:100350004CC0CA01861B970BFD01E80FF91F619382
:10036000719302978D939C9340C0FD01828193818C
:100370009C01D9011097A1F680918C0790918D076F
:10038000892B41F48091FF029091000390938D0797
:1003900080938C0740910103509102034115510550
:1003A00041F44DB75EB78091FD029091FE02481B6B
:1003B000590B20918C0730918D07CA01821B930B3A
:1003C0008617970780F0AB014E5F5F4F8417950744
:1003D00050F0420F531F50938D0740938C07F90143
:1003E0006193719302C0E0E0F0E0CF01DF91CF9123
:1003F0000895CF93DF93009709F450C0EC01229742
:100400001B821A82A0918E07B0918F07109709F175
:1004100040E050E0AC17BD0708F1BB83AA83FE01A2
:1004200021913191E20FF31FAE17BF0779F48D913F
:100430009C911197280F391F2E5F3F4F39832883D6
:1004400012968D919C9113979B838A834115510538
:1004500071F4D0938F07C0938E0720C012968D91B0
:100460009C911397AD01009711F0DC01D3CFFA01F5
:10047000D383C28321913191E20FF31FCE17DF079F
:1004800069F488819981280F391F2E5F3F4FFA0147
:10049000318320838A819B8193838283DF91CF91F3
:1004A0000895FB01DC0102C001900D9241505040C3
:1004B000D8F70895DC0101C06D9341505040E0F73A
:1004C0000895FB01DC018D91019080190110D9F391
:1004D000990B08951F920F920FB60F920BB60F92C1
:1004E00011242F933F934F938F939F93EF93FF93F9
:1004F0008091C00082FD1DC04091C6002091E203A2
:100500003091E3032F5F3F4F2F7330708091E403EE
:100510009091E5032817390771F0E091E203F0911B
:10052000E303EE55FC4F40833093E3032093E20353
:1005300002C08091C600FF91EF919F918F914F91E2
:100540003F912F910F900BBE0F900FBE0F901F90F9
:1005500018951F920F920FB60F920BB60F9211249F
:100560002F933F934F938F939F93EF93FF9380919C
:10057000C80082FD1DC04091CE0020916A043091D8
:100580006B042F5F3F4F2F73307080916C049091FC
:100590006D042817390771F0E0916A04F0916B043B
:1005A000E65DFB4F408330936B0420936A0402C0E6
:1005B0008091CE00FF91EF919F918F914F913F914C
:1005C0002F910F900BBE0F900FBE0F901F9018959C
:1005D0001F920F920FB60F920BB60F9211242F930A
:1005E0003F934F938F939F93EF93FF938091D0000E
:1005F00082FD1DC04091D6002091F2043091F30499
:100600002F5F3F4F2F7330708091F4049091F50469
:100610002817390771F0E091F204F091F304EE54D9
:10062000FB4F40833093F3042093F20402C0809187
:10063000D600FF91EF919F918F914F913F912F9114
:100640000F900BBE0F900FBE0F901F9018951F922A
:100650000F920FB60F920BB60F9211242F933F9368
:100660004F938F939F93EF93FF938091300182FD7F
:100670001DC04091360120917A0530917B052F5F96
:100680003F4F2F73307080917C0590917D05281726
:10069000390771F0E0917A05F0917B05E65CFA4F3D
:1006A000408330937B0520937A0502C08091360108
:1006B000FF91EF919F918F914F913F912F910F90CB
:1006C0000BBE0F900FBE0F901F9018951F920F92A8
:1006D0000FB60F920BB60F9211242F933F938F9367
:1006E0009F93EF93FF9320912604309127048091EC
:1006F0002804909129042817390731F48091C1000A
:100700008F7D8093C10014C0E0912804F0912904EA
:10071000EA51FC4F20818091280490912904019690
:100720008F73907090932904809328042093C600BF
:10073000FF91EF919F918F913F912F910F900BBE61
:100740000F900FBE0F901F9018951F920F920FB62B
:100750000F920BB60F9211242F933F938F939F9379
:10076000EF93FF932091AE043091AF048091B004D9
:100770009091B1042817390731F48091C9008F7D19
:100780008093C90014C0E091B004F091B104E25923
:10079000FB4F20818091B0049091B10401968F733A
:1007A00090709093B1048093B0042093CE00FF9199
:1007B000EF919F918F913F912F910F900BBE0F90D2
:1007C0000FBE0F901F9018951F920F920FB60F92A9
:1007D0000BB60F9211242F933F938F939F93EF9318
:1007E000FF9320913605309137058091380590911F
:1007F00039052817390731F48091D1008F7D809316
:10080000D10014C0E0913805F0913905EA50FB4F52
:100810002081809138059091390501968F739070F1
:1008200090933905809338052093D600FF91EF917E
:100830009F918F913F912F910F900BBE0F900FBE04
:100840000F901F9018951F920F920FB60F920BB634
:100850000F9211242F933F938F939F93EF93FF93C6
:100860002091BE053091BF058091C0059091C105D2
:100870002817390731F4809131018F7D8093310140
:1008800014C0E091C005F091C105E258FA4F2081F3
:100890008091C0059091C10501968F7390709093DF
:1008A000C1058093C00520933601FF91EF919F9180
:1008B0008F913F912F910F900BBE0F900FBE0F9015
:1008C0001F901895AF92BF92DF92EF92FF920F9315
:1008D0001F93CF93DF93EC017A018B01DD2440302D
:1008E00081EE580780E0680780E0780711F0DD248A
:1008F000D39491E0A92EB12CEC89FD89DD2069F01B
:10090000C50108A002C0880F991F0A94E2F78083EE
:1009100060E079E08DE390E005C0108260E874E863
:100920008EE190E0A80197010E94C22E2150304034
:1009300040405040569547953795279580E12030A7
:10094000380720F0DD2011F0DD24D6CFE889F989C1
:100950003083EA89FB89208319A2EE89FF894081CF
:1009600021E030E0C9010C8C02C0880F991F0A9465
:10097000E2F7482B4083EE89FF894081C9010D8C45
:1009800002C0880F991F0A94E2F7482B4083EE8932
:10099000FF894081C9010E8C02C0880F991F0A94FB
:1009A000E2F7482B4083EE89FF8980810F8C02C0DB
:1009B000220F331F0A94E2F7209528232083DF912A
:1009C000CF911F910F91FF90EF90DF90BF90AF906C
:1009D0000895DC011C96ED91FC911D97E05CFF4FA2
:1009E0002191319180819181281B390B2F733070B7
:1009F000C9010895DC011C96ED91FC911D97E05C06
:100A0000FF4F20813181E054F040DF01AE5BBF4FEA
:100A10008D919C9111972817390719F42FEF3FEF0B
:100A200007C08D919C91E80FF91F8081282F30E03D
:100A3000C9010895DC011C96ED91FC911D97E05CC5
:100A4000FF4F20813181E054F040DF01AE5BBF4FAA
:100A50008D919C9111972817390719F42FEF3FEFCB
:100A600010C08D919C911197E80FF91F20818D91F5
:100A70009C91119701968F73907011969C938E9311
:100A800030E0C9010895DC0191968C9191978823FB
:100A900039F05496ED91FC915597808186FFF9CFFE
:100AA00091961C920895CF93DF93EC01EE85FF851C
:100AB000E05CFF4F20813181E054F0402F5F3F4FD9
:100AC0002F733070DF01AE5BBF4F8D919C911197FA
:100AD00028173907D1F3E05CFF4F80819181E05402
:100AE000F040E80FF91F6083EE85FF85E05CFF4F63
:100AF00031832083EE89FF89208181E090E00F8C93
:100B000002C0880F991F0A94E2F7282B208381E006
:100B100089A3EC89FD8980818064808381E090E0F5
:100B2000DF91CF9108951F931092C5051092C405CF
:100B300028EE33E040E050E02093C6053093C7052F
:100B40004093C8055093C9056CE873E07093C305E2
:100B50006093C20582EA93E09093CF058093CE051F
:100B600086EE93E09093D1058093D00585EC90E0DC
:100B70009093D3058093D20584EC90E09093D505B3
:100B80008093D40580EC90E09093D7058093D605B0
:100B900081EC90E09093D9058093D80582EC90E0A9
:100BA0009093DB058093DA0586EC90E09093DD0569
:100BB0008093DC0514E01093DE05B3E0B093DF050D
:100BC000A7E0A093E005F5E0F093E105E1E0E09314
:100BD000E2051092E7051092E6052093E8053093B0
:100BE000E9054093EA055093EB057093E5056093A2
:100BF000E4058AE294E09093F1058093F0058EE697
:100C000094E09093F3058093F2058DEC90E090933F
:100C1000F5058093F4058CEC90E09093F7058093B4
:100C2000F60588EC90E09093F9058093F80589EC3F
:100C300090E09093FB058093FA058AEC90E0909306
:100C4000FD058093FC058EEC90E09093FF0580936A
:100C5000FE0510930006B0930106A0930206F093E0
:100C60000306E093040610920906109208062093EA
:100C70000A0630930B0640930C0650930D067093B2
:100C800007066093060682EB94E090931306809328
:100C9000120686EF94E0909315068093140685ED76
:100CA00090E0909317068093160684ED90E0909361
:100CB00019068093180680ED90E090931B068093B0
:100CC0001A0681ED90E090931D0680931C0682ED3C
:100CD00090E090931F0680931E0686ED90E090931F
:100CE00021068093200610932206B0932306A0933A
:100CF0002406F0932506E093260610922B06109208
:100D00002A0620932C0630932D0640932E065093EE
:100D10002F0670932906609328068AE395E0909346
:100D20003506809334068EE795E0909337068093DE
:100D3000360685E391E0909339068093380684E384
:100D400091E090933B0680933A0680E391E0909384
:100D50003D0680933C0681E391E090933F068093AB
:100D60003E0682E391E0909341068093400686E33D
:100D700091E0909343068093420610934406B0930B
:100D80004506A0934606F0934706E09348061F9158
:100D900008958CE993E090934B0680934A06109255
:100DA0004C0610924D0610924E0610924F06089572
:100DB0008F929F92AF92BF92CF92DF92EF92FF926B
:100DC0000F931F93CF93DF934C016B017C01AA24F7
:100DD000BB24C0E0D0E0C601F70162814AE050E0E8
:100DE0000E94DB078C01C6016EE20E944407080FD7
:100DF000191FA00EB11E21960894E11CF11CC330EE
:100E0000D10549F7C601F40165814AE050E00E942E
:100E1000DB079501280F391FC901DF91CF911F9181
:100E20000F91FF90EF90DF90CF90BF90AF909F9089
:100E30008F900895CF92DF92EF92FF920F931F93BE
:100E4000CF93DF937C016B018A01C0E0D0E00FC03B
:100E5000D6016D916D01D701ED91FC910190F0816A
:100E6000E02DC7011995C80FD91F01501040011579
:100E7000110571F7CE01DF91CF911F910F91FF9076
:100E8000EF90DF90CF900895DC01ED91FC910190FF
:100E9000F081E02D19950895CF93DF93EC01611552
:100EA000710519F420E030E00FC0DB010D90002047
:100EB000E9F71197A61BB70BE881F9810280F3814E
:100EC000E02DAD0119959C01C901DF91CF910895E5
:100ED0004F925F927F928F929F92AF92BF92CF92EA
:100EE000DF92EF92FF920F931F93DF93CF93CDB7D3
:100EF000DEB7A1970FB6F894DEBF0FBECDBF2C01B1
:100F0000742ECB01223008F42AE019A231E2C32E5C
:100F1000D12CCC0EDD1E822E9924AA24BB24672D51
:100F2000752FA50194010E94C22E79018A01C80182
:100F3000B701A50194010E94A32E472D461B0894DA
:100F4000C108D1084A3014F4405D01C0495CF60183
:100F50004083E114F1040105110521F07E2C5F2D81
:100F6000C801DDCFC201B6010E944C07A1960FB6A1
:100F7000F894DEBF0FBECDBFCF91DF911F910F91CF
:100F8000FF90EF90DF90CF90BF90AF909F908F90A9
:100F90007F905F904F900895DC012115310541F459
:100FA000ED91FC910190F081E02D642F1995089549
:100FB0000E9468070895EF92FF920F931F939A0182
:100FC000E62EFF2400E010E0B801A7010E94CC0744
:100FD0001F910F91FF90EF9008951F920F920FB6FF
:100FE0000F920BB60F9211242F933F934F935F9361
:100FF0006F937F938F939F93AF93BF93EF93FF93E1
:101000008091540690915506892B29F0E091540661
:10101000F09155061995FF91EF91BF91AF919F9176
:101020008F917F916F915F914F913F912F910F9091
:101030000BBE0F900FBE0F901F9018951F920F922E
:101040000FB60F920BB60F9211242F933F934F932D
:101050005F936F937F938F939F93AF93BF93EF9320
:10106000FF938091560690915706892B29F0E091C5
:101070005606F09157061995FF91EF91BF91AF91E8
:101080009F918F917F916F915F914F913F912F91A0
:101090000F900BBE0F900FBE0F901F9018951F92D0
:1010A0000F920FB60F920BB60F9211242F933F930E
:1010B0004F935F936F937F938F939F93AF93BF9360
:1010C000EF93FF938091580690915906892B29F050
:1010D000E0915806F09159061995FF91EF91BF9153
:1010E000AF919F918F917F916F915F914F913F91C0
:1010F0002F910F900BBE0F900FBE0F901F90189561
:101100001F920F920FB60F920BB60F9211242F93CE
:101110003F934F935F936F937F938F939F93AF937F
:10112000BF93EF93FF9380915A0690915B06892BB2
:1011300029F0E0915A06F0915B061995FF91EF9125
:10114000BF91AF919F918F917F916F915F914F91DF
:101150003F912F910F900BBE0F900FBE0F901F90DD
:1011600018951F920F920FB60F920BB60F92112483
:101170002F933F934F935F936F937F938F939F939F
:10118000AF93BF93EF93FF938091500690915106D8
:10119000892B29F0E0915006F09151061995FF91A5
:1011A000EF91BF91AF919F918F917F916F915F91DF
:1011B0004F913F912F910F900BBE0F900FBE0F904C
:1011C0001F9018951F920F920FB60F920BB60F92A9
:1011D00011242F933F934F935F936F937F938F933C
:1011E0009F93AF93BF93EF93FF938091520690919B
:1011F0005306892B29F0E0915206F0915306199578
:10120000FF91EF91BF91AF919F918F917F916F91DE
:101210005F914F913F912F910F900BBE0F900FBE9A
:101220000F901F9018951F920F920FB60F920BB64A
:101230000F9211242F933F934F935F936F937F935C
:101240008F939F93AF93BF93EF93FF9380915C062F
:1012500090915D06892B29F0E0915C06F0915D0686
:101260001995FF91EF91BF91AF919F918F917F91D0
:101270006F915F914F913F912F910F900BBE0F9007
:101280000FBE0F901F9018951F920F920FB60F92DE
:101290000BB60F9211242F933F934F935F936F934D
:1012A0007F938F939F93AF93BF93EF93FF9380911F
:1012B0005E0690915F06892B29F0E0915E06F09121
:1012C0005F061995FF91EF91BF91AF919F918F911B
:1012D0007F916F915F914F913F912F910F900BBE36
:1012E0000F900FBE0F901F9018951F920F920FB680
:1012F0000F9211242F933F938F939F93AF93BF939C
:101300008091640690916506A0916606B09167068B
:10131000309168060196A11DB11D232F2D5F2D3739
:1013200020F02D570196A11DB11D209368068093D2
:10133000640690936506A0936606B0936706809155
:10134000600690916106A0916206B09163060196D5
:10135000A11DB11D8093600690936106A093620663
:10136000B0936306BF91AF919F918F913F912F9161
:101370000F900FBE0F901F9018959FB7F894209173
:10138000600630916106409162065091630686B511
:10139000A89B06C08F3F21F02F5F3F4F4F4F5F4FFD
:1013A0009FBF542F432F322F2227280F311D411D5D
:1013B000511D82E0220F331F441F551F8A95D1F71C
:1013C000B901CA0108959B01AC017FB7F8948091DF
:1013D000600690916106A0916206B091630666B5C1
:1013E000A89B05C06F3F19F00196A11DB11D7FBFDD
:1013F000BA2FA92F982F8827860F911DA11DB11DE7
:1014000062E0880F991FAA1FBB1F6A95D1F7BC0124
:101410002DC0FFB7F8948091600690916106A0916D
:101420006206B0916306E6B5A89B05C0EF3F19F0D0
:101430000196A11DB11DFFBFBA2FA92F982F882794
:101440008E0F911DA11DB11DE2E0880F991FAA1FEB
:10145000BB1FEA95D1F7861B970B885E9340C8F2B5
:10146000215030404040504068517C4F211531059B
:101470004105510571F60895789484B5826084BD64
:1014800084B5816084BD85B5826085BD85B5816088
:1014900085BDEEE6F0E0808181608083E1E8F0E0E8
:1014A0001082808182608083808181608083E0E817
:1014B000F0E0808181608083E1EBF0E080818460F6
:1014C0008083E0EBF0E0808181608083E1E9F0E0FF
:1014D000808182608083808181608083E0E9F0E0A8
:1014E000808181608083E1EAF0E080818260808396
:1014F000808181608083E0EAF0E080818160808388
:10150000E1E2F1E08081826080838081816080837C
:10151000E0E2F1E0808181608083EAE7F0E08081B1
:101520008460808380818260808380818160808309
:101530008081806880831092C1000895CF93DF93EB
:10154000482F50E0CA0188589E4FFC0134914E5CF0
:101550005E4FFA018491882369F190E0880F991F0A
:10156000FC01EC51FF4FA591B491FC01E250FF4FFB
:10157000C591D491662351F42FB7F8948C91932F91
:10158000909589238C93888189230BC0623061F404
:101590002FB7F8948C91932F909589238C93888101
:1015A000832B88832FBF06C09FB7F8948C91832B21
:1015B0008C939FBFDF91CF910895893009F449C082
:1015C0008A30A0F4843051F1853040F4823079F1D2
:1015D000833000F5813009F063C026C0873079F18F
:1015E000883098F5863009F05BC025C08D3009F44D
:1015F00042C08E3028F48B30B1F18C30C0F52DC054
:10160000803109F442C0813109F445C08F3009F0BE
:1016100047C037C0809180008F7703C080918000E1
:101620008F7D80938000089584B58F7702C084B544
:101630008F7D84BD08958091B0008F7703C0809125
:10164000B0008F7D8093B0000895809190008F77D7
:1016500007C0809190008F7D03C080919000877FAC
:101660008093900008958091A0008F7707C08091AB
:10167000A0008F7D03C08091A000877F8093A00091
:101680000895809120018F7703C0809120018F7D84
:1016900080932001089580912001877F809320010D
:1016A0000895FF920F931F93F62E482F50E0CA0122
:1016B00082549E4FFC012491CA0188589E4FFC0120
:1016C00014914E5C5E4FFA0104910023C9F022236D
:1016D00019F0822F0E94DD0AE02FF0E0EE0FFF1FCD
:1016E000E250FF4FA591B4919FB7F894FF2021F4E9
:1016F0008C911095812302C08C91812B8C939FBF7C
:101700001F910F91FF90089580E090E00895EF926F
:10171000FF920F931F93CF93DF93162F072F7A011A
:10172000E9011982188282EC95E00E94E904892B74
:10173000D1F0812F902F9C01890110C082EC95E09F
:101740000E941A052FEF8F3F920741F0F801819315
:101750008F018881998101969983888388819981F5
:101760008E159F0558F380E090E0DF91CF911F9197
:101770000F91FF90EF900895EF92FF920F931F93B8
:101780008A01790182EC95E00E941A07F701118322
:10179000008380E090E01F910F91FF90EF900895FB
:1017A0000E943C0A82EC95E040E052EC61E070E07F
:1017B0000E94620404C082EC95E00E941A0582EC4B
:1017C00095E00E94E904892BB1F780E090E008954C
:1017D000AF92BF92CF92DF92EF92FF920F931F933F
:1017E0005C016A017B0100E010E020E030E00E9433
:1017F0002015C501B701A60101E010E020E030E0AE
:101800000E9420151F910F91FF90EF90DF90CF90D5
:10181000BF90AF90089560E070E080E090E00E949B
:10182000F81461E070E080E090E00E94F814089500
:101830000F931F938C0160E070E080E090E0A801BE
:101840000E948F1461E070E080E090E0A8010E94A7
:101850008F141F910F910895CF92DF92EF92FF9214
:101860000F931F93DF93CF9300D00F92CDB7DEB7C6
:101870007C0180916F06909170068E159F050CF586
:1018800080916D0690916E06009731F00E94F901EB
:101890001092700610926F06C7010E944F0190933C
:1018A0006E0680936D06009741F400E010E083E03F
:1018B000C82ED12CCC0EDD1E1CC0F0927006E0921A
:1018C0006F0600E010E06E010894C11CD11C27C017
:1018D00080916B0690916C0661E070E0A60121E7B3
:1018E00036E00E94BB25882311F58B819C81080F6F
:1018F000191F0E151F0564F31AC0B701601B710B89
:10190000200F311F80916B0690916C06A6010E94FA
:10191000BB25882361F489819A81080F191F2091C2
:101920006D0630916E060E151F053CF302C020E0D7
:1019300030E0C9010F900F900F900F90CF91DF9181
:101940001F910F91FF90EF90DF90CF900895AF928D
:10195000BF92CF92DF92FF920F931F93DF93CF93AB
:10196000CDB7DEB72A970FB6F894DEBF0FBECDBF56
:101970008B016A01A0E0B0E08B839C83AD83BE83C2
:10198000CB01AA2797FDA095BA2F8F839887A987A7
:10199000BA8780916B0690916C0668E070E0AE01AA
:1019A0004D5F5F4F5E010894A11CB11C95010E9420
:1019B000B624F82E8823B9F489819A81089799F47E
:1019C000C114D10491F080916B0690916C06B8011E
:1019D000A60195010E94B624882329F489819A8161
:1019E0008017910711F0FF24F3948F2D2A960FB6DC
:1019F000F894DEBF0FBECDBFCF91DF911F910F9145
:101A0000FF90DF90CF90BF90AF900895AF92BF92BC
:101A1000CF92DF92EF92FF920F931F93DF93CF93BA
:101A2000CDB7DEB72C970FB6F894DEBF0FBECDBF93
:101A30007C016B01CA0159010E942C0CFC0100972A
:101A4000D1F481E090E0A0E0B0E08D839E83AF838D
:101A5000B8878FEF9FEFAFEFBFEF89879A87AB878C
:101A6000BC87C70168E070E0AE014B5F5F4F0E942A
:101A7000A70C11E04FC000811181228133810983BD
:101A80001A832B833C838BE1E816F10461F08CE12F
:101A9000E816F10451F53496C601BF01A901980179
:101AA0000E94011A06C03496C601B501AF010E941A
:101AB000F01D182F8823C9F029813A814B815C8160
:101AC00081E090E0A0E0B0E08D839E83AF83B88793
:101AD00029873A874B875C87C70168E070E0AE01D1
:101AE0004B5F5F4F0E94A70C15C089819A81AB8123
:101AF000BC811D821E821F82188689879A87AB87C8
:101B0000BC87C70168E070E0AE014B5F5F4F0E9489
:101B1000A70C182F812F2C960FB6F894DEBF0FBE9E
:101B2000CDBFCF91DF911F910F91FF90EF90DF908C
:101B3000CF90BF90AF900895EF92FF920F931F93B5
:101B4000DF93CF93CDB7DEB72C970FB6F894DEBFF7
:101B50000FBECDBF8C01CB017A010E942C0CFC0181
:101B60000097D1F481E090E0A0E0B0E08D839E8307
:101B7000AF83B8878FEF9FEFAFEFBFEF89879A876B
:101B8000AB87BC87C80168E070E0AE014B5F5F4F78
:101B90000E94A70C81E028C06081718182819381BD
:101BA00069837A838B839C830D31110531F00E316B
:101BB000110531F40E94CB1303C0A7010E947E13CC
:101BC00089819A81AB81BC811D821E821F82188609
:101BD00089879A87AB87BC87C80168E070E0AE014F
:101BE0004B5F5F4F0E94A70C2C960FB6F894DEBF98
:101BF0000FBECDBFCF91DF911F910F91FF90EF905E
:101C000008950F931F938C0110926A061092690633
:101C100060E070E080E090E0A8010E94E31C61E0D9
:101C200070E080E090E0A8010E94E31C80916B06C8
:101C300090916C060E94D5231F910F910895CF9229
:101C4000DF92EF92FF920F931F936B017C0189014A
:101C50009A0180916B0690916C06B701A6010E94D3
:101C6000D4231F910F91FF90EF90DF90CF900895B4
:101C70001F9380916B0690916C060E94BB23182FD6
:101C8000882361F460E070E080E090E00E94EC1B4B
:101C900061E070E080E090E00E94EC1B812F1F91DA
:101CA00008952F923F924F925F926F927F928F9200
:101CB0009F92AF92BF92CF92DF92EF92FF920F93DB
:101CC0001F93DF93CF93CDB7DEB72A970FB6F89463
:101CD000DEBF0FBECDBF5B016C012A0180916A0699
:101CE000882309F46FC08E010D5F1F4FC801B60134
:101CF000A50192010E94F31C1E010894211C311CB5
:101D000009871A8752C00D811E81060D171DF80123
:101D1000E080F1804281538180916B0690916C0646
:101D2000B70191010E94B624882309F048C0898137
:101D30009A818E159F0509F042C0F801E480F58074
:101D40001E141F048CF44681578180916B0690917C
:101D50006C06B70191010E94B624882381F5898120
:101D60009A818E159F0559F5C401880F991FEF813F
:101D7000F885E80FF91F80819181B601A5010E94C5
:101D8000F7130894811C911C88E090E0680E791E7E
:101D90008B819C81881699060CF4B5CF89859A852C
:101DA000B601A50192010E94F31C8B819C8118163B
:101DB000190644F48824992466247724E9CFC201C3
:101DC0000E94010E2A960FB6F894DEBF0FBECDBF5B
:101DD000CF91DF911F910F91FF90EF90DF90CF9007
:101DE000BF90AF909F908F907F906F905F904F903B
:101DF0003F902F9008951F93CF93DF93EC0160E005
:101E000070E080E090E00E94611360E070E080E0AC
:101E100090E0AE010E94510E60E070E080E090E042
:101E2000AE010E94151C80916D0690916E06009780
:101E300031F00E94F90110926E0610926D0661E079
:101E400070E080E090E00E94611361E070E080E06B
:101E500090E0AE010E94510E61E070E080E090E001
:101E6000AE010E94151C80916D0690916E06009740
:101E700031F00E94F90110926E0610926D06809169
:101E80006906882311F410E00BC084E190E060E063
:101E900070E040E050E00E94A70C182F10926906F5
:101EA00080916A06882341F010926A0681E090E0F2
:101EB000909306038093050380916B0690916C06C6
:101EC0000E94DA2780916B0690916C060E94D323C2
:101ED000812FDF91CF911F9108952F923F924F92C2
:101EE0005F926F927F928F929F92AF92BF92CF92AA
:101EF000DF92EF92FF920F931F93DF93CF93CDB7B3
:101F0000DEB7A0970FB6F894DEBF0FBECDBF6C0151
:101F10007B012A0180916A06882359F480916B061F
:101F200090916C066AE676E00E94BD23882309F052
:101F300005C380916A06882309F400C31A821982B6
:101F400000E010E058E0652E712C4BE0842E912CBF
:101F50008C0E9D1E5E010894A11CB11CB301601B78
:101F6000710B9401200F311F80916B0690916C06CC
:101F7000A5010E94BB25282F882351F489819A81CD
:101F8000080F191F0115110519F00830110534F358
:101F900089819A81222309F0CEC2181619060CF005
:101FA000CDC280916906882321F41B861C861D867C
:101FB0001E868B859C85AD85BE8586309105A105E5
:101FC000B10509F468C087309105A105B10510F588
:101FD00082309105A105B10509F4ADC283309105A8
:101FE000A105B10558F40097A105B10509F468C031
:101FF0000197A105B10509F0A1C23EC28430910547
:10200000A105B10509F458C10597A105B10509F06D
:1020100095C274C189309105A105B10509F483C247
:102020008A309105A105B10558F487309105A105C5
:10203000B105D1F10897A105B10509F07FC226C00D
:102040008B309105A105B10509F469C28B3091056A
:10205000A105B10508F456C20F97A105B10509F015
:102060006DC2D6011696ED91FC91179780819181F2
:10207000A281B3818B839C83AD83BE8385E190E095
:1020800064E070E0AE014D5F5F4F2DC16F857889D0
:102090008DE190E04CC24F8558898BE190E0B6010C
:1020A000970103E013E009C04F8558898CE190E067
:1020B000B6012FEF3FEF04E013E00E94060D3EC291
:1020C000D6011496ED91FC91159700811181F801CC
:1020D000F281FD8FD8011396BC91BE8FF801F0817B
:1020E000FB8FD8011196BC91BC8F30E1832E912CCF
:1020F000A12CB12C8B8A9C8AAD8ABE8A88E090E0A4
:10210000A0E0B0E08F8B988FA98FBA8F23E1422E89
:10211000512C4C0E5D1E80916B0690916C0668E010
:1021200070E0A2013E010894611C711C93010E94A1
:10213000B624882309F0BAC089819A81089709F0EA
:10214000B5C0F801E080F18088E090E0E80EF91E6B
:10215000EE0CFF1CEE0CFF1CC7010E944F018F8F7D
:1021600098A38C011C01009709F4A2C08B8A9C8A59
:10217000AD8ABE8AC701AA2797FDA095BA2F8F8B7B
:10218000988FA98FBA8F80916B0690916C0668E04A
:1021900070E0A20193010E94B624882309F088C050
:1021A00089819A81089709F083C04B8D5C8DD60197
:1021B0001296ED91FC911397A080B180C280D380DC
:1021C000D801AD92BD92CD92DC921397A480B580D8
:1021D000C680D7801496AD92BD92CD92DC921797AF
:1021E000A084B184C284D3841896AD92BD92CD925E
:1021F000DC921B9784859585A685B785F801848731
:102200009587A687B787D80150961D921D921D927B
:102210001C92539784E090E0A0E0B0E0848B958B13
:10222000A68BB78B8091050390910603A0E0B0E0E8
:10223000808F918FA28FB38FCA01AA2797FDA09597
:10224000BA2F848F958FA68FB78F2D8D3E8DC901A4
:10225000BC012F8D38A1C901FC0120E030E00CC089
:10226000DB018D919D91BD01A0E0B0E0848F958F41
:10227000A68FB78F2F5F3F4F34962417350784F30F
:1022800080916B0690916C06B701A8019E012F5FAB
:102290003F4F0E94B624882359F489819A818E1574
:1022A0009F0531F481E08093690602C02224332423
:1022B000C1010E94F90142C18F8598890E942C0CAE
:1022C000BC018E01095F1F4F009781F481E090E00F
:1022D000A0E0B0E08F839887A987BA8782E190E079
:1022E00064E070E0A8010E94A70C28C1C6010E940A
:1022F000E7181F82188619861A86F0CFD601149621
:10230000ED91FC9115970190F081E02DA084B184AE
:10231000A114B10409F495C0D5016D907C90828020
:10232000938000E010E060E070E040E050E021C009
:10233000F501A281B381A40FB51F1296ED91FC9116
:102340001397EE0FFF1FE80DF91D208131811696BE
:102350008D919C911797DC012A9FC0012B9F900DB6
:102360003A9F900D1124080F191F6F5F7F4F485F30
:102370005F4F66157705E4F283E190E0A0E0B0E0FE
:102380008B8B9C8BAD8BBE8BC801AA2797FDA0952C
:10239000BA2F8F8B988FA98FBA8F80916B069091EF
:1023A0006C0668E070E0AE014D5E5F4F6E01089410
:1023B000C11CD11C96010E94B624882309F0BEC01E
:1023C00089819A81089709F0B9C0EE24FF2400E0C2
:1023D00010E0260132C0F501A281B381A00FB11F28
:1023E0001296ED91FC911397EE0FFF1FE80DF91D6A
:1023F0002081318116968D919C911797289F6001BD
:10240000299FD00C389FD00C11244D915C91809164
:102410006B0690916C06B60192010E94B624882347
:1024200009F08CC0085F1F4F89819A818C159D052A
:1024300009F084C00894E11CF11CE614F7045CF276
:102440007DC083E190E0A0E0B0E08B8B9C8BAD8BF6
:10245000BE8B1F8A188E198E1A8E80916B069091F2
:102460006C0668E070E0AE014D5E5F4F9E012F5F2D
:102470003F4F0E94B62462C081E190E060E070E0CE
:1024800040E050E00E94A70C882309F057C060E0AC
:1024900070E080E090E00E946113809174068823D0
:1024A00039F060E070E080E090E0A7010E94510EFA
:1024B00060E070E080E090E0A7010E94151C61E000
:1024C00070E080E090E00E946113809174068823A0
:1024D00039F061E070E080E090E0A7010E94510EC9
:1024E00061E070E080E090E0A7010E94151C10926E
:1024F0006A061092690680916B0690916C060E94A4
:10250000CA231CC081E090E090937306809372060A
:1025100086E190E060E070E040E050E0E4CE81E0F1
:10252000D2018C930BC06F8578898EE190E0A70172
:102530000E949C0D03C0C7010E94010EA0960FB619
:10254000F894DEBF0FBECDBFCF91DF911F910F91E9
:10255000FF90EF90DF90CF90BF90AF909F908F90C3
:102560007F906F905F904F903F902F9008950F93C2
:102570001F938C0160E070E080E090E0A8010E9471
:10258000510E61E070E080E090E0A8010E94510EE1
:102590001F910F91089580916B0690916C060E9497
:1025A000CD2308950F931F93CF93DF93EC018B01FD
:1025B0000E94D02390936C0680936B06009719F4C9
:1025C000C0E0D2E007C0BE01A8010E945827EC017C
:1025D000009751F080916B0690916C060E94D32376
:1025E00010926C0610926B06CE01DF91CF911F9175
:1025F0000F9108950895089580E090E060E070E004
:102600000E94D21208950E94FB0E08950E94380E77
:1026100008950E94180C08950E940B0C08950E94C2
:10262000E80B0895CF93DF939C01EB0180910503A4
:1026300090910603049731F0C9010E946D0FCE01FD
:102640000E94B712DF91CF910895EF92FF920F93FE
:102650001F93CF93DF937C018B01EA010E94CB1281
:10266000882399F41BC060E070E080E090E028EDE2
:1026700038EB45E050E00E941F0EC701B801AE01E3
:102680000E946D0FC8010E94B7128091720690914E
:102690007306892B19F48881882329F38091050317
:1026A00090910603049731F083E090E09093060345
:1026B00080930503DF91CF911F910F91FF90EF90D1
:1026C000089524E430E0629FF001639FF00D729F53
:1026D000F00D1124EB58F94F8289938904970297E2
:1026E00060F485E090E0938B828B8FEF9FEFAFEFEC
:1026F000BFEF828F938FA48FB58F0895CF93DF9311
:1027000024E430E0629FD001639FB00D729FB00D52
:102710001124AB58B94F109274069D961C921E92CC
:102720009C9760E070E020E030E0C1E0D0E019C0AC
:102730001A96ED91FC911B97E20FF31F8281938112
:102740001816190654F4848195819783868391879E
:10275000808713861286D183C0836F5F7F4F225F8D
:102760003F4F6417750724F39B961C921E929A970D
:10277000D9961C921E92D897FD01FE961082118266
:102780001282138282E090E053969C938E9352972C
:10279000DF91CF91089524E430E0629FF001639FC0
:1027A000F00D729FF00D1124EB58F94F8289938937
:1027B00081309105D8F08530910518F00597B1F476
:1027C0000DC08FEF9FEFAFEFBFEF828F938FA48F7E
:1027D000B58F85E090E0938B828B08958FEF9FEF0C
:1027E000AFEFBFEF828F938FA48FB58F089524E44E
:1027F00030E0429FF001439FF00D529FF00D1124F5
:10280000EB58F94F9C01220F331FC90143E0880F99
:10281000991F4A95E1F7821B930B0284F385E02D03
:10282000E80FF91F81E08093740622853385318794
:10283000208740E050E0868197812817390711F4FE
:1028400041E050E0518340830895EF92FF920F934F
:102850001F93CF93DF93EC01DA01F901EC80FD8047
:102860000A811B814D915C91119728853985241728
:10287000350720F088819981892BB1F10E0D1F1D3C
:10288000C801841B950B2E193F09280F391F2617E5
:102890003707ECF1460F571F2D913C9111974017C8
:1028A000510728F4718360833383228326C0918388
:1028B0008083338322839B01281B390B3583248338
:1028C000121613061CF080E090E002C08C819D81FE
:1028D000978386838C819D8124813581820F931F0C
:1028E0008D939C9380E014C0241B350B261737076B
:1028F00074F071836083538342831582148217823C
:1029000016828D919C911197860F971FE9CF81E0D8
:10291000DF91CF911F910F91FF90EF900895EF926B
:10292000FF920F931F93CF93DF937B018C01FA01EA
:1029300084E490E0E89EE001E99ED00DF89ED00D81
:102940001124CB58D94F8A899B89009709F449C033
:102950000197C1F48AA59BA52A8D3B8D4C8D5D8D79
:1029600001969BA78AA70197AA2797FDA095BA2F42
:1029700082179307A407B507A1F5C801B701AF01F6
:102980000E947E138A899B89039759F58AA59BA586
:102990002E8D3F8D48A159A101969BA78AA701972B
:1029A000AA2797FDA095BA2F82179307A407B5070A
:1029B000C4F08EAD9FAD9BA78AA784E090E09B8B6F
:1029C0008A8B8AAD9BADACADBDAD181619061A0643
:1029D0001B063CF4FE01EE5BFF4F81E090E091832B
:1029E0008083DF91CF911F910F91FF90EF90089519
:1029F00024E430E0629FF001639FF00D729FF00DC0
:102A00001124EB58F94F828993890097C1F00497FC
:102A1000B1F482A593A5019693A782A7AA2797FD53
:102A2000A095BA2F26893789408D518D821793073B
:102A3000A407B50721F485E090E0938B828B08957D
:102A40002F923F924F925F926F927F928F929F92BE
:102A5000AF92BF92CF92DF92EF92FF920F931F93AC
:102A6000DF93CF93CDB7DEB7CC54D0400FB6F894F8
:102A7000DEBF0FBECDBF27969FAF8EAF27974DA766
:102A80005EA76FA778AB2B960CAF1DAF2EAF3FAFF5
:102A90002B9784E490E029962EAD3FAD2997289F8F
:102AA0004001299F900C389F900C112445E756E077
:102AB000840E951ED4011A960D90BC91A02D2596DA
:102AC000BFAFAEAF2597F40182899389029709F0D1
:102AD00025C186A597A5A0A9B1A90097A105B10513
:102AE00029F484E090E0938B828B18C1D401549632
:102AF0008D919C9155972796EEADFFAD2797E817DE
:102B0000F90709F00BC1D6962D913C91D7973EAFAE
:102B10002DAF1DAA1EAA1FAA18AE1CAA1BAACBC0A5
:102B2000D401D2964D905C90D397EBA9FCA94E0EA0
:102B30005F1ED20112960D90BC91A02DBCAFABAF21
:102B4000B695A795B695A795BAAFA9AFF40180AD94
:102B500091AD892B09F489C0E6A0F7A000A511A5C5
:102B60006DAC7EACD2012D903C9021961FAE1EAE76
:102B7000219771C0F40182A193A1892B61F1D10148
:102B8000AD90BD90CD90DC90C601B501A801970134
:102B90000E943C2E88235CF0F30160817181828168
:102BA0009381A80197010E945A2D87FD98C0C60104
:102BB000B501A80197010E943C2E181664F4D301B8
:102BC0006D917D918D919C91A80197010E945A2D44
:102BD000882309F484C0F40184A195A1892B61F1B3
:102BE000D101AD90BD90CD90DC90C601B501A8019A
:102BF00097010E945A2D88235CF4F3016081718152
:102C000082819381A80197010E943C2E87FF67C0B3
:102C1000C601B501A80197010E945A2D882361F4CD
:102C2000D3016D917D918D919C91A80197010E9496
:102C30003C2E18160CF453C02196EEADFFAD219733
:102C400031962196FFAFEEAF219724E030E0620E7F
:102C5000731E220E331E21964EAD5FAD219789ADB6
:102C60009AAD481759070CF485CFD2016C91119693
:102C70007C918DAD9EAD4BAD5CAD0E945102E9AD36
:102C8000FAADEE0FFF1FEE0FFF1F2DAD3EAD2E0F65
:102C90003F1F3EAF2DAF8DA99EA9AFA9B8AD01963C
:102CA000A11DB11D8DAB9EABAFABB8AFABA9BCA99D
:102CB0001496BCABABABF40186A597A5A0A9B1A9AE
:102CC0002DA93EA94FA958AD281739074A075B0718
:102CD0000CF426CF81E090E091AF80AF1FC0F401EB
:102CE000868D978DA0A1B1A10097A105B10549F4EA
:102CF00084E090E0938B828B86AD97AD93A782A7FB
:102D00000DC083E090E0D40153969C938E9352972C
:102D100081E090E09B969C938E939A97F401828930
:102D200093898230910571F482AD93ADA4ADB5ADB8
:102D3000181619061A061B060CF02FC2A1E02A2E3F
:102D4000312C05C0049709F028C222243324279689
:102D50008EAD9FAD2797880F991F5C01E3E0AA0C09
:102D6000BB1CEA95E1F7A81AB90A25962EAD3FAD2E
:102D70002597A20EB31ED50112966D917C911397E3
:102D80006115710519F480E090E0FAC1F5018681C2
:102D900097819A838983FE01799684E1DF011D92F0
:102DA0008A95E9F72B962CAD3DAD4EAD5FAD2B97D7
:102DB00029A73AA74BA75CA72114310409F446C000
:102DC000F401FE962081318142815381F40182AD6C
:102DD00093ADA4ADB5AD281739074A075B07B1F528
:102DE000D50114964D915C911597640F751F189637
:102DF000ED91FC91199784819581A681B7819C0101
:102E00008B839C83AD83BE83285F3F4FE20FF31F0C
:102E1000D5011996FC93EE931897E61BF70BF7FD77
:102E200006C04E0F5F1F19965C934E9318973C8314
:102E30002B83F401FE9680819181A281B381019759
:102E4000A109B10980839183A283B383C50164E1A1
:102E500070E08E010F5F1F4FA8019E012F5E3F4F54
:102E60000E94251490E0009709F08AC18D8D9E8DF7
:102E7000AF8DB8A10C96A11DB11D8D8F9E8FAF8F08
:102E8000B8A3C50164E070E0A8019E01275F3F4F31
:102E90000E942514E82FF0E0FAABE9ABEF2B09F024
:102EA0006DC18D8D9E8DAF8DB8A10496A11DB11DF4
:102EB0008D8F9E8FAF8FB8A38E01035D1F4F498505
:102EC0005A858B859C85B8010E9451026F8578894F
:102ED0006115710551F029853A85200F311F4D8507
:102EE0005E85CB01B9010E9451021D821E821F82A4
:102EF000188627962EAD3FAD2797220F331F2396B6
:102F00003FAF2EAF2397AE014B5F5F4F2D965FAF64
:102F10004EAF2D97D4C0C901880F991F880F991FF4
:102F2000F401A085B185A80FB91FED91FC9111970F
:102F3000E081EE2309F4B8C0E33009F4B5C012967D
:102F4000ED91FC91139723962EAD3FAD2397E20FA1
:102F5000F31F408051804114510409F4A5C089A198
:102F60009AA1ABA1BCA10196A11DB11D89A39AA3F1
:102F7000ABA3BCA3C50164E070E0AE014F5F5F4F3F
:102F80009E01275F3F4F0E94251490E0009709F0B3
:102F9000F7C08D8D9E8DAF8DB8A10496A11DB11D7A
:102FA0008D8F9E8FAF8FB8A349855A858B859C8561
:102FB0002C966FAD2C972D967FAD2D970E945102C8
:102FC0006F8578896115710571F029853A8545E02D
:102FD00050E04C0F5D1F240F351F4D855E85CB01E2
:102FE000B9010E945102CC24DD24760166247724A5
:102FF00050C0D20114960D911C911597060D171D06
:10300000F80162817381C501AE014F5F5F4F9E0180
:10301000275F3F4F0E94251490E0009709F0B0C051
:10302000D80112962D913C911397442737FD409576
:10303000542F8D8D9E8DAF8DB8A1820F931FA41F2D
:10304000B51F8D8F9E8FAF8FB8A3F80160817181FE
:1030500049855A858B859C850E9451026F857889A8
:103060006115710569F0D8012D913C9189859A858A
:10307000280F391F4D855E85CB01B9010E94510291
:103080000894C11CD11CE11CF11CE4E0F0E06E0EC0
:103090007F1EF20180819181A281B381C816D90679
:1030A000EA06FB060CF4A5CF8D819E81AF81B88521
:1030B0000196A11DB11D8D839E83AF83B8872D819D
:1030C0003E814F815885F40184819581A681B78125
:1030D000281739074A075B070CF41DCF89A19AA16D
:1030E000ABA1BCA10097A105B10509F447C08AE1D5
:1030F00090E0A0E0B0E0898F9A8FAB8FBC8F2796CD
:103100002EAD3FAD2797C901AA2797FDA095BA2FED
:103110008DA39EA3AFA3B8A78E01075E1F4F498959
:103120005A898B899C89B8010E9451026F89788DD8
:103130006115710551F029893A89200F311F4D8998
:103140005E89CB01B9010E94510289819A81D50122
:1031500017969C938E9316971D921C922328E9F044
:10316000F401FE9680819181A281B3810196A11D17
:10317000B11D80839183A283B3830FC089A99AA9CB
:10318000232859F4892B49F081E090E0F40195A7B8
:1031900084A785E090E0938B828BC45BDF4F0FB6F2
:1031A000F894DEBF0FBECDBFCF91DF911F910F917D
:1031B000FF90EF90DF90CF90BF90AF909F908F9057
:1031C0007F906F905F904F903F902F9008952F9237
:1031D0003F924F925F926F927F928F929F92AF92A7
:1031E000BF92CF92DF92EF92FF920F931F93DF93E4
:1031F000CF93CDB7DEB768970FB6F894DEBF0FBE9A
:10320000CDBFDC011496ED91FC9115970190F081F2
:10321000E02D80859185988F8F8BA281B381BE8BA5
:10322000AD8BFB0181919191A191B19189839A8399
:10323000AB83BC8366247724430165C09E012B5F6A
:103240003F4FAF0180E1DA010D90AD01D9010D9240
:103250009D018150C1F730E1432E512C4E0E5F1E6F
:103260008D819E8123E0880F991F2A95E1F7EF89D0
:10327000F88DA281B381A80FB91F2D903C901197B2
:10328000E989FA89EE0FFF1F8D899E89E80FF91FE2
:103290000190F081E02D14968D919C911597892BCA
:1032A00019F481E090E002C082E090E08E9F70010E
:1032B0008F9FF00C9E9FF00C11240027F7FC0095C7
:1032C000102F2D853E854F855889C801B7010E9472
:1032D000A32E5B016C0129853A854B855C85C8016D
:1032E000B7010E94A32E9101260F371FC901B20119
:1032F000A5010E945102F201EA0DFB1D0894611C18
:10330000711C811C911C89819A81AB81BC816816DA
:1033100079068A069B060CF491CF68960FB6F8944E
:10332000DEBF0FBECDBFCF91DF911F910F91FF90F8
:10333000EF90DF90CF90BF90AF909F908F907F9055
:103340006F905F904F903F902F900895CF93DF93B1
:1033500024E430E0629FE001639FD00D729FD00DA6
:103360001124CB58D94F8AA99BA9009721F00E941C
:10337000F9011BAA1AAA8EA99FA9009721F00E9401
:10338000F9011FAA1EAA1B8A1A8A1E8A1F8A188E72
:10339000198E1A8E1B8E1C8E1D8E1E8E1F8E18A2CD
:1033A00019A281E090E09BA38AA31DA21CA280E049
:1033B00090E0A0E0B0E08EA39FA3A8A7B9A71BA6AA
:1033C0001AA61DA61CA61EA61FA618AA19AA1BAAE5
:1033D0001AAA1DAA1CAA1FAA1EAA19AE18AE1AAEB6
:1033E0001BAE1CAE1DAEFE01FE9610821182128233
:1033F0001382FE01EE5BFF4F11821082DF91CF91AD
:1034000008952F923F924F925F926F927F928F9288
:103410009F92AF92BF92CF92DF92EF92FF920F9363
:103420001F93DF93CF93CDB7DEB7AC970FB6F89469
:10343000DEBF0FBECDBF98A38F8F8B0129A33AA308
:103440004BA35CA3FB0181919191A191B191AF013B
:10345000BC0189839A83AB83BC8329A13AA184E40C
:1034600090E0289FF001299FF00D389FF00D112466
:103470009F012B58394F3EA32DA3D90155967C931C
:103480006E9354979F012557394FD80114964D904C
:103490005D906D907C901797D9014D925D926D92E1
:1034A0007C921397BA016C5F7F4F9F012157394F70
:1034B000DA0114964D905D906D907C901797D9012C
:1034C0004D925D926D927C921397AB014C5F5F4F72
:1034D0009F012D56394FDB0114964D905D906D90F4
:1034E0007C901797D9014D925D926D927C921397C3
:1034F000ED55F94FDA0114964D905D906D907C90EA
:1035000017974082518262827382FA013896FE8F49
:10351000ED8F0DA11EA1025D1F4FC20114141504F1
:103520000CF0C3C0880F991F880F991F0E944F018C
:103530009C018DA19EA1C296ADA1BEA1D3963C9344
:103540002E93D297232B09F427C12224332421015F
:103550001A8E198E18A70FA39AA789A7D496BCA76D
:10356000ABA788C0E9A5FAA50190F081E02D298DCF
:103570003A8DE20FF31FFC8FEB8FDE011996ED8D74
:10358000FE8D80E101900D928150E1F7AF8DB8A1E1
:103590001496ED91FC91159720813181D9011696F1
:1035A000ED91FC91179789859A8553E0880F991FB3
:1035B0005A95E1F7A281B381A80FB91F6D907C9055
:1035C00011978D899E89880F991FF9012281338176
:1035D000280F391FF9014081518114968D919C91DA
:1035E0001597892B19F481E090E002C082E090E009
:1035F0002D8D3E8D205F3F4F3E8F2D8F849F70011C
:10360000859FF00C949FF00C11240027F7FC009587
:10361000102F29893A894B895C89C801B7010E941A
:10362000A32E4B015C016B012D853E854F8558898A
:10363000C801B7010E94A32E660E771EAB8DBC8D0C
:1036400011967C926E9213969C928E921297EBA595
:10365000FCA580819181C80ED91ED182C0820894B8
:10366000211C311C411C511C298D3A8D2C5F3F4F70
:103670003A8F298FEFA1F8A580819181A281B38132
:10368000281639064A065B060CF46CCFADA1BEA124
:10369000D4968D919C91D5970E944F01EDA1FEA1EA
:1036A00097AB86AB009709F477C0AD8DBE8D2C919A
:1036B00011963C91119712964C91129713965C912A
:1036C0002D833E834F835887C901DA01AC01BD01C8
:1036D000411551056105710539F0A0E0B0E04230B7
:1036E00051056105710511F4A1E0B0E029A13AA1ED
:1036F00084E490E0289FF001299FF00D389FF00DA1
:103700001124EB58F94FB3A3A2A315A214A2415060
:10371000504060407040423051056105710520F411
:1037200081E090E095A384A384E490E0E9A1FAA16C
:10373000E89F9001E99F300DF89F300D1124A901F9
:103740004556594FED8DFE8D84819581A681B781B7
:10375000FA0180839183A283B383F901EB58F94F77
:10376000268D378D40A151A157FF10C0882799277A
:10377000DC01821B930BA40BB50B82AF93AFA4AFFC
:10378000B5AF168E178E10A211A204C012AE13AEE2
:1037900014AE15AE80E007C069A17AA18BA19CA1EF
:1037A0000E94A61981E0AC960FB6F894DEBF0FBE5A
:1037B000CDBFCF91DF911F910F91FF90EF90DF90E0
:1037C000CF90BF90AF909F908F907F906F905F90C1
:1037D0004F903F902F9008959B01AC0184E490E0BE
:1037E000289FF001299FF00D389FF00D1124EB5810
:1037F000F94F80910703882339F084E4DF011D929B
:103800008A95E9F7109207031482158216821782AF
:103810001186108613861286118A108A17861686DC
:10382000CA01B9010E94A61908952F923F924F92A2
:103830005F926F927F928F929F92AF92BF92CF9240
:10384000DF92EF92FF920F931F93DF93CF9300D0FD
:103850000F92CDB7DEB73B014C015A83498384E414
:1038600090E0689E7001699EF00C789EF00C112427
:1038700085E796E0E80EF91EF70184819581A6811F
:10388000B7810097A105B10509F486C0AA24BB241D
:1038900065014424552435C0E40DF51D3280238094
:1038A000232D322DC9019C838B8300E010E017C0CB
:1038B000AB81BC81ED91FC91309751F08481958171
:1038C0000E94F901EB81FC81808191810E94F901C4
:1038D0000F5F1F4F8B819C8102969C838B83A981F4
:1038E000BA810A171B0724F3832D922D0E94F90138
:1038F0000894A11CB11CC11CD11CE4E0F0E04E0EE8
:103900005F1ED70114962D913D914D915C911797B3
:103910001896ED91FC911997A216B306C406D50628
:103920000CF4BACFCF010E94F901F701828593858B
:10393000892BF1F000E010E0CC24DD240CC0EC0D6C
:10394000FD1D848195810E94F9010F5F1F4F8EE05C
:1039500090E0C80ED91ED7011A96ED91FC911B97E5
:1039600089819A810817190754F3CF010E94F90140
:10397000D70150968D919C9151970E94F901F701C2
:10398000868597850E94F901C401B3010E94A6199A
:10399000C401B3010E94EC1B0F900F900F900F9089
:1039A000CF91DF911F910F91FF90EF90DF90CF901B
:1039B000BF90AF909F908F907F906F905F904F904F
:1039C0003F902F90089524E430E0629FF001639FC0
:1039D000F00D729FF00D1124EB58F94F138A128AE3
:1039E0000E94151C08954F925F926F927F928F9262
:1039F0009F92AF92BF92CF92DF92EF92FF920F937E
:103A00001F93DF93CF9300D00F92CDB7DEB75C0149
:103A100049835A836B837C83290184E490E0489F27
:103A20008001499F100D589F100D11240B58194FFC
:103A3000F801828993890497029708F0B4C0F501D0
:103A40001182108213821282F8011586148688244E
:103A500099246624772460C0F80142855385460D79
:103A6000571DFA0180819181892B09F04EC0C084D5
:103A7000D184E280F38066817781F8018485958521
:103A80009C01A3E0220F331FAA95E1F7A089B18919
:103A9000A20FB31F880F991F26853785280F391F5E
:103AA000F90191828082F801848595850196958738
:103AB00084871396DC92CE921297FA0173876287FD
:103AC000C616D70670F46C197D0911967C936E9317
:103AD00015961C921E92149717961C921E9216977A
:103AE00014C0FA0184819581E80EF91EEC18FD08D6
:103AF0001196FC92EE92681B790B15967C936E934F
:103B0000149717969C938E9316970894811C911C7A
:103B10008EE090E0680E791E841495040CF49CCF1E
:103B2000F80184859585F50191838083F8012089CA
:103B30003189F50133832283F80126853785F50124
:103B400035832483892BB9F5F801828993890597F8
:103B500091F510927406828D938DA48DB58DAE0172
:103B60004F5F5F4F8F5F9F4FAF4FBF4F71F480E24A
:103B700090E064E070E00E94A70C69817A818B81FB
:103B80009C81A2010E94E31C16C08FE190E064E0DA
:103B900070E00E94A70CF80113A612A681E090E045
:103BA000938B828B08C0F80115861486F50111826B
:103BB0001082138212820F900F900F900F90CF916E
:103BC000DF911F910F91FF90EF90DF90CF90BF900A
:103BD000AF909F908F907F906F905F904F900895DF
:103BE0002F923F924F925F926F927F928F929F920D
:103BF000AF92BF92CF92DF92EF92FF920F931F93FB
:103C0000DF93CF93CDB7DEB7E6970FB6F894DEBF5C
:103C10000FBECDBF98AB8FA77AAB69AB7A010BAB68
:103C20001CAB2DAB3EAB84E490E04BA95CA9489F54
:103C30009001499F300D589F300D11242B58394F5A
:103C40003AA729A78BA99CA9ADA9BEA9F901808390
:103C50009183A283B383BC01CD0149A95AA90E94D3
:103C6000151CD7012D913D914D915C91C901E9A59C
:103C7000FAA5248335834683578364E070E00E946D
:103C80003301A9A5BAA519969C938E93189700970E
:103C900009F04FC104C2E9A5FAA50084F185E02D21
:103CA000298D3A8DE20FF31FFEA7EDA70BA51CA5EA
:103CB000F80181919191A191B1918F019C018D8326
:103CC0009E83AF83B887220F331FAFA5B8A9ED91AC
:103CD000FC91E20FF31F80819181EDA5FEA59183F8
:103CE0008083EBA5FCA584819581A681B78189831A
:103CF0009A83AB83BC8389A99AA962E070E00E9491
:103D00003301ADA5BEA513969C938E931297009791
:103D100009F4C5C1F8013496FCA7EBA71F8E18A2C1
:103D200019A21AA2F7C0EBA5FCA580819181A281FE
:103D3000B3819C018D839E83AF83B887220F331F8D
:103D4000ADA5BEA512960D911C911397020F131FDE
:103D500081E090E068E070E00E943301F801808328
:103D600091838D819E81880F991FADA5BEA5129666
:103D7000ED91FC911397E80FF91F60807180611439
:103D8000710409F48CC10BA51CA50C5F1F4FEBA59A
:103D9000FCA52481358146815781C901D3012D932A
:103DA0003D934D935C93139764E070E00E94330160
:103DB000F30195838483009709F471C198012C5F06
:103DC0003F4F3CA72BA72224332421011CA21BA276
:103DD0008AC0D30114960D90BC91A02DEBA1FCA13B
:103DE000AE0FBF1FBEA3ADA3DE011996EBA5FCA5C8
:103DF00080E101900D928150E1F7AFA5B8A914962A
:103E0000ED91FC91159720813181D9011696ED91A4
:103E1000FC91179789859A8553E0880F991F5A95C9
:103E2000E1F7A281B381A80FB91FED91FC91119721
:103E3000F8A7EFA38D899E89880F991FF901228128
:103E40003381280F391FF9014081518114968D91DA
:103E50009C911597892B19F481E090E002C082E0D3
:103E600090E02BA53CA5205F3F4F3CA72BA7849F4C
:103E70007001859FF00C949FF00C11240027F7FC33
:103E80000095102F29893A894B895C89C801B701AF
:103E90000E94A32E5B016C012D853E854F855889BC
:103EA000C801B7010E94A32E4FA158A5460F571F66
:103EB000ADA1BEA111965C934E931396BC92AE92A7
:103EC0001297F301868197818A0D9B1D97838683C4
:103ED0000894211C311C411C511C2BA13CA12C5FBE
:103EE0003F4F3CA32BA3F30180819181A281B38139
:103EF000281639064A065B060CF46BCF2F8D38A1C5
:103F000049A15AA12F5F3F4F4F4F5F4F2F8F38A3CB
:103F100049A35AA389819A81AB81BC812F8D38A195
:103F200049A15AA1281739074A075B070CF4FBCEB1
:103F3000D8C0A7014C5F5F4F5CA74BA71B8E1C8EA0
:103F40001D8E1E8E1A8E198EE9A5FAA58481958183
:103F5000A681B7812B8D3C8D4D8D5E8D281739073D
:103F60004A075B070CF497CE89A99AA96EE070E026
:103F70000E943301A9A5BAA51A968C931A971B968D
:103F80009C9344245524222433246624772401E07E
:103F9000C02ED12C5BC0EBA5FCA580819181A281B4
:103FA000B3819C0189839A83AB83BC83A9A5BAA5FD
:103FB0001A964D915C911B97790137FD70C08A016B
:103FC000060D171DF801D182C0822115310559F067
:103FD000C9010E944F01D80115969C938E931497A6
:103FE000009721F45CC0F801158214822BA53CA532
:103FF0002C5F3F4F3CA72BA7D8011396FC92EE9263
:10400000129714968D919C91159717969C938E9369
:10401000169719969C938E9318971B961C921E9236
:104020001A9720E030E089819A81AB81BC810097AA
:10403000A105B10511F021E030E0420E531E0894B5
:10404000211C311CEEE0F0E06E0E7F1E29A93AA97A
:10405000221633060CF49FCFA9A5BAA51D961C9273
:104060001E921C97C20113E0880F991F1A95E1F761
:104070000E944F01E9A5FAA5918B808B009779F0FA
:10408000C201880F991F0E944F01A9A5BAA51F96CA
:104090009C938E931E97009711F080E009C06BA946
:1040A0007CA98DA99EA949A95AA90E94151C81E045
:1040B000E6960FB6F894DEBF0FBECDBFCF91DF916D
:1040C0001F910F91FF90EF90DF90CF90BF90AF9036
:1040D0009F908F907F906F905F904F903F902F9028
:1040E00008952B8D3C8D4D8D5E8D2F5F3F4F4F4F33
:1040F0005F4F2B8F3C8F4D8F5E8F498D5A8D4C5F5C
:104100005F4F5A8F498F20CF2F923F924F925F92ED
:104110006F927F928F929F92AF92BF92CF92DF92D7
:10412000EF92FF920F931F93DF93CF93CDB7DEB73C
:104130002F970FB6F894DEBF0FBECDBF7C016B0189
:10414000DB0111968C91882309F4E6C11A821B8247
:104150001C821D8219828EE7F7018083818383E0B0
:1041600085878687108A1786128A118AD701539607
:104170001D921D921D921C92569757961C923701C4
:104180000894611C711C32E0432E512C4E0C5F1CB4
:1041900023E0822E912C8E0C9F1C9DE0A92EB12C29
:1041A000AE0CBF1CFE013A96FF87EE8781E0282EF9
:1041B000312CC601BE016F5F7F4F21E030E040E04F
:1041C00050E08E010E5F1F4F0E94F927882309F0EF
:1041D000A4C18A819B81AC81BD810197A105B105F4
:1041E00051F0D70150961C921E921F9752961C9226
:1041F0001E92519791C1F701878590890297039785
:1042000008F587899981882329F0178AF0E29F278A
:10421000998318C09D3729F09E3741F0933091F46F
:1042200008C0E1E0D7015796EC93C3CFD7019C9328
:104230002BC0D70152961C921E92519750961C92F9
:104240001E921F97F701878590898230910509F4A6
:1042500046C08330910534F4009781F0019709F04E
:10426000A8CF27C08430910509F4D6C084309105C9
:104270000CF463C0059709F09CCF12C189818E3779
:1042800009F097CFD7018C9352967C926E925197FA
:1042900053968D919D910D90BC91A02D0196A11DDD
:1042A000B11DF701838B948BA58BB68B308A278643
:1042B00080CF89818E3709F02AC1D7015196ED91BF
:1042C000FC9152978083F701138A148A158A168A03
:1042D00082E090E0908B8787528A418A6ACFF7010B
:1042E00083899489A589B6890097A105B10509F04C
:1042F0000EC189810188F289E02D8193D701529600
:10430000FC93EE93519753968D919D910D90BC9196
:10431000A02D0196A11DB11DF701838B948BA58B58
:10432000B68B0197A105B10509F043CF83E090E07A
:10433000908B8787928A818AABC0F70183899489A1
:10434000A589B6890497A105B10508F0E0C0898167
:104350000188F289E02D8193D7015296FC93EE9368
:10436000519753968D919D910D90BC91A02D0196E2
:10437000A11DB11DF701838B948BA58BB68B049780
:10438000A105B10509F015CFD6012C911A861B861F
:104390001C861D86F40180819181A281B3818E8368
:1043A0009F83A887B987222389F4DE011696FE0130
:1043B0003D968D91808331978E859F85A817B9078B
:1043C000C1F78A859B85AC85BD8504C08E819F81A0
:1043D000A885B985F70183839483A583B683138A5F
:1043E000148A158A168A0097A105B10549F084E060
:1043F00090E0908B878787819085928B818BD9CE37
:10440000E5E0F0E0D7015096FC93EE931F975296AB
:10441000BC92AE925197CDCED70153962D913D913E
:104420004D915C91569713968D919D910D90BC91F5
:10443000A02D281739074A075B0708F068C0898153
:10444000D7015196ED91FC91529781935296FC932E
:10445000EE93519753968D919D910D90BC91A02D07
:104460000196A11DB11DF701838B948BA58BB68B93
:10447000238134814581568182179307A407B507AC
:1044800009F097CE85E090E0908B8787B28AA18A69
:10449000D70153961D921D921D921C92569789CE5C
:1044A000F70183899489A589B6890297A105B10589
:1044B00070F58981833059F50188F289E02D819367
:1044C000D7015296FC93EE93519753968D919D91FF
:1044D0000D90BC91A02D0196A11DB11DF701838BFC
:1044E000948BA58BB68B0297A105B10509F061CE1F
:1044F00086E090E0908B8787128A118AD7015396C5
:104500001D921D921D921C92569780E006C0F701E5
:10451000128A118A108A178681E02F960FB6F894B6
:10452000DEBF0FBECDBFCF91DF911F910F91FF90E6
:10453000EF90DF90CF90BF90AF909F908F907F9043
:104540006F905F904F903F902F9008956F927F9261
:104550008F929F92AF92BF92CF92DF92EF92FF9293
:104560000F931F93DF93CF93CDB7DEB760970FB64E
:10457000F894DEBF0FBECDBF6C015B01DB0111966D
:104580008C91882309F4D4C08EE7F601808381835F
:1045900083E085878687108A1786128A118AD6015A
:1045A00053961D921D921D921C92569757961C92DF
:1045B000CB01B60122E030E040E050E00E94A228AA
:1045C000882309F0B5C0F60182818E3729F0833047
:1045D00019F08D3709F0C1C08DE78987D601129691
:1045E0008C9190E289278A8722E030E040E050E019
:1045F000C501BE01675F7F4F0E94A228882309F092
:1046000097C0F5012081F60183819481A581B6814F
:104610008D839E83AF83B8872223A9F4FE01389649
:10462000DE0111969E012C5F3F4F80818D93319763
:10463000E217F307D1F789819A81AB81BC818D8321
:104640009E83AF83B887BE016B5F7F4FDE011996F3
:1046500024E030E040E050E0EDE7FE2E90E28E01F5
:10466000085F1F4FFB0180818E3729F0833019F0DE
:104670008D3709F078C0FD01F192892711968C934E
:10468000DF0111962F5F3F4F4F4F5F4F601771074C
:1046900019F06F5F7F4FE6CF69E0862E912C8C0E6C
:1046A0009D1EC501B4010E94A228882309F040C0C4
:1046B000EE24FF2487015DE7652E40E2742E22C0C0
:1046C000D6011796ED91FC911897EE0DFF1D808194
:1046D0008E3729F0833019F08D3709F046C069868E
:1046E000808187258A8722E030E040E050E0C501E4
:1046F000B4010E94A2288823D9F40894E11CF11C7B
:10470000011D111DF60183819481A581B681E816F2
:10471000F9060A071B07A0F28DE090E0C80ED91E2B
:10472000C501B60122E030E040E050E00E94A2283E
:1047300060960FB6F894DEBF0FBECDBFCF91DF916C
:104740001F910F91FF90EF90DF90CF90BF90AF90AF
:104750009F908F907F906F900895898721E030E03F
:1047600040E050E045CF8D9391CF898721E030E044
:1047700040E050E0BCCF80E00895FB0120E0DC0188
:1047800011968D919C911297892B09F021E020833D
:1047900080E008951092FD060895FC01808108953F
:1047A00086E097E00895089508950F931F938C0174
:1047B000FC01818192810E94B528F8011282118248
:1047C0001F910F910895CF93DF93C0E0D0E081E077
:1047D00090E06AE470E00E943301FC01009711F45C
:1047E00081E01DC0A0910007B09101078091FE06F5
:1047F0009091FF06892BB1F41097A1F4F093010773
:10480000E0930007F093FF06E093FE06E85BFF4F9E
:10481000118210822196C530D105C9F680E0DF9162
:10482000CF910895A85BBF4FED93FC93F0930107E0
:10483000E0930007EBCF4F925F926F927F928F923F
:104840009F92AF92BF92CF92DF92EF92FF920F931F
:104850001F93DF93CF9300D0CDB7DEB76C01562EF8
:10486000472EF90158017A014331510518F092E1C0
:10487000E92EF12CF182E08200E010E03E01089484
:10488000611C711C82E0882E912C8C0E9D1E35C0FF
:104890001982C601B3010E946028882309F052C022
:1048A0008981882331F0C6010E940B25882309F0F5
:1048B00049C020910007309101078091FE06909138
:1048C000FF06892BC1F4232BB1F4083C11051CF41D
:1048D0000F5F1F4F12C00E94E323882399F5C60182
:1048E00060E070E040E050E0940102E010E00E94DF
:1048F0001B24882339F500E010E08091FD06882311
:1049000021F082E0A816B10419F6C701AA2797FD85
:10491000A095BA2F8093240790932507A09326078C
:10492000B0932707A0922307809128079091290729
:10493000652D742DA7010E94510281E297E0B60116
:104940000E94A6220F900F900F90CF91DF911F91A0
:104950000F91FF90EF90DF90CF90BF90AF909F901E
:104960008F907F906F905F904F9008953F924F92FD
:104970005F926F927F928F929F92AF92BF92CF92EF
:10498000DF92EF92FF920F931F93DF93CF930F92DB
:104990000F92CDB7DEB76B014A013901FC01A1804E
:1049A000B2801A821982EE24FF242E010894411C41
:1049B000511C3324339414C0B4016E0D7F1DA60125
:1049C0004E195F09C501920101E010E00E941B240D
:1049D000882369F489819A81E80EF91E3092FD06D8
:1049E000EC14FD044CF3F301D182C08280E00F90FF
:1049F0000F90CF91DF911F910F91FF90EF90DF907B
:104A0000CF90BF90AF909F908F907F906F905F906E
:104A10004F903F900895AF92BF92DF92EF92FF9236
:104A20000F931F93DF93CF930F920F92CDB7DEB703
:104A30005C0189E097E0B5010E948420D82E88238C
:104A400009F066C080910B07823019F41092FD06C0
:104A50005FC06091100770911107E0900C07F09013
:104A60000D070091FE061091FF06809100079091BE
:104A700001070115110509F058C0892B09F055C02F
:104A80000BC01092010710920007085B1F4FF8013E
:104A90001182108208541040C801A7010E945102DF
:104AA000005C1F4FC701AA2797FDA095BA2FF801F8
:104AB00081939193A193B1938F01108211821282FD
:104AC000138204541040E0910407F091050780918F
:104AD000020790910307892BB9F53097A9F5109338
:104AE0000507009304071093030700930207085B70
:104AF0001F4FF801118210822091000730910107A9
:104B00008091FE069091FF06892B39F5232B29F51C
:104B10008D2D0F900F90CF91DF911F910F91FF90EE
:104B2000EF90DF90BF90AF900895085B1F4FF801A2
:104B300080819181085410409093FF068093FE0677
:104B4000892B09F0A2CF9DCFE85BFF4F1183008333
:104B50001093050700930407CACFC50160E070E019
:104B600040E050E09E012F5F3F4F02E010E00E94C6
:104B70001B24D82ECDCF8F929F92AF92BF92CF920F
:104B8000DF92EF92FF920F931F93DF93CF930F92D9
:104B90000F92CDB7DEB76C015B017A01922E832EA6
:104BA000FC01018112812091040730910507809159
:104BB000020790910307892B19F5232B09F5198218
:104BC000C801BE016F5F7F4F0E946028882309F0F3
:104BD000C4C08981882309F4E6C0C8010E940B255E
:104BE000882309F0BAC0209104073091050780910D
:104BF000020790910307892B19F4232B09F4D3C0E2
:104C0000F601C180D28006C0C6010E940B25882310
:104C100009F0A3C0009102071091030701151105C7
:104C200099F30C5B1F4FF801208131814281538140
:104C300004501040F8018081918100541040821B83
:104C4000930BA816B90624F0F7019183808303C063
:104C5000F701B182A082200F311FF70140815181FD
:104C6000892D982DB9010E945102F70120813181CF
:104C7000442737FD4095542FF801EC5BFF4F8081AE
:104C80009181A281B381280F391F4A1F5B1F2083A6
:104C9000318342835383005C1F4FF80180819181EF
:104CA000A281B38100541040281739074A075B07D7
:104CB00009F052C04091FE065091FF06A0910007F6
:104CC000B09101074115510511F020E004C020E02A
:104CD000109709F421E0005C1F4FF8011192119226
:104CE000119211921082118212821382E0910207B6
:104CF000F091030780910407909105073097E1F543
:104D0000892BD1F50AC01092050710920407E85BC1
:104D1000FF4F11821082E854F040452BD9F51097CF
:104D2000C9F5F0930107E0930007F093FF06E093C5
:104D3000FE06E85BFF4F11821082222369F0C60154
:104D400060E070E040E050E09E012F5F3F4F02E0E6
:104D500010E00E941B2401C080E00F900F90CF91C3
:104D6000DF911F910F91FF90EF90DF90CF90BF9058
:104D7000AF909F908F900895E85BFF4F8081918165
:104D8000E854F0409093030780930207892B09F0C1
:104D9000BECFB9CFA85BBF4FED93FC93F093010753
:104DA000E0930007C6CFF70111821082D5CF1F9381
:104DB0000DC01092010710920007E85BFF4F1182AF
:104DC0001082E854F040CF010E94F901E091FE0604
:104DD000F091FF068091000790910107309709F04C
:104DE0004BC0892B09F048C00DC0109205071092E6
:104DF0000407E85BFF4F11821082E854F040CF01B6
:104E00000E94F901E0910207F091030780910407E5
:104E1000909105073097F1F5892BE1F58091100706
:104E2000909111070E94F90118E1E9E0F7E0DF0134
:104E3000812F1D928A95E9F7809128079091290783
:104E40000E94F901E1E2F7E0DF011D921A95E9F70E
:104E500010920507109204071092030710920207A0
:104E600010920107109200071092FF061092FE06A2
:104E70001092FD061F910895E85BFF4F808191819C
:104E8000E854F0409093FF068093FE06892B09F0CA
:104E900094CF8FCFE85BFF4F80819181E854F04041
:104EA0009093030780930207892B09F0A2CF9DCF2F
:104EB0008F929F92AF92BF92CF92DF92EF92FF922A
:104EC0000F931F93CF93DF935C016B01942E852E7C
:104ED000842F952F9C01E90101E010E00FC08A8129
:104EE0009B810F5F1F4F009741F06BE372E00E94C0
:104EF0006102009711F41B821A8222960C151D057F
:104F000074F381E0F50180830E94F127EC010097A2
:104F1000C9F10E94D72680E490E00E944F0190934F
:104F2000290780932807009759F120E4E22EF12CFD
:104F3000012D112DE0922A07F0922B0700932C07E8
:104F400010932D0780E490E00E944F019093110789
:104F5000809310070097A1F0E0921207F0921307D8
:104F600000931407109315070E94E323882341F44C
:104F7000CE01B601492D582D0E94D528882311F065
:104F8000C0E0D0E0F501D283C183CD2B19F42EE32C
:104F900032E002C020E030E0C901DF91CF911F91E3
:104FA0000F91FF90EF90DF90CF90BF90AF909F90C8
:104FB0008F9008950F931F93CF93DF938C01FC0183
:104FC000C181D281209741F00E94D726CE010E9454
:104FD000B528F80112821182DF91CF911F910F91B4
:104FE000089581E08093390710923A0789E397E0AA
:104FF00008958F929F92AF92BF92CF92DF92EF92DD
:10500000FF920F931F93CF93DF935B0169017A01A6
:105010004801F8011082118212821382FC01818101
:105020008823C9F1E0913B07F0913C0782858823F2
:1050300031F1E90190E08217930708F4EC01238530
:1050400030E02E5F3F4F2E0F3F1FC501B901AE016B
:105050000E945102E0913B07F0913C0782858C1B36
:10506000828783858C0F8387AC0EBD1ECE01A0E0A6
:10507000B0E0A7019601281B390B4A0B5B0BE091AE
:105080003B07F0913C0780819181B5010E94132973
:105090008F5F9F4F11F481E006C0F401C082D1827E
:1050A000E282F38280E0DF91CF911F910F91FF9018
:1050B000EF90DF90CF90BF90AF909F908F9008952A
:1050C0000F931F93DF93CF930F920F92CDB7DEB75D
:1050D0008B01DC0111968C918823E1F01A821982F0
:1050E000E0913B07F0913C078285882321F081E025
:1050F000FB0180831FC0DB011C9281919191BF0154
:1051000048E050E09E012F5F3F4F0E94870B8F5F6A
:105110009F4F11F481E00FC089819A81892B51F052
:1051200081E0F8018083E0913B07F0913C078981A1
:105130008287138680E00F900F90CF91DF911F91AF
:105140000F910895FC018181882361F0E0913B0774
:10515000F0913C07808191810E94682920E08F5F57
:105160009F4F09F421E0822F0895CF93DF93FC0134
:1051700081818823B1F01182E0913B07F0913C07D7
:10518000808191810E94840BEC0180913B0790917A
:105190003C07009711F00E94F90180E0CF5FDF4FDC
:1051A00009F481E0DF91CF910895CF92DF92EF92E1
:1051B000FF920F931F93CF93DF938C017B016A01C2
:1051C000FC018181882329F581E090E06CE070E0AA
:1051D0000E943301EC0190933C0780933B070097BA
:1051E000C1F01A861B8681E0F8018183C701B601F0
:1051F0000E94D00B99838883E0913B07F0913C0794
:10520000808191818F5F9F4F11F080E003C0F80192
:10521000118281E0DF91CF911F910F91FF90EF906C
:10522000DF90CF9008958F929F92AF92BF92CF92CE
:10523000DF92EF92FF920F931F93DF93CF930F9222
:105240000F92CDB7DEB75C0179018A016B0140E0B6
:1052500050E04E010894811C911C25C0A8019701C3
:1052600080E0E81680E0F80681E0080780E0180793
:1052700020F02FEF3FEF40E050E0C501B601A9015B
:1052800094010E94870BAC018FEF4F3F580781F0CC
:1052900029813A81C901A0E0B0E0E81AF90A0A0BB5
:1052A0001B0BC20ED31EE114F10401051105B1F66A
:1052B000CA010F900F90CF91DF911F910F91FF9036
:1052C000EF90DF90CF90BF90AF909F908F90089518
:1052D0008F929F92AF92BF92CF92DF92EF92FF9206
:1052E0000F931F93DF93CF930F920F92CDB7DEB73B
:1052F0005C0179018A016B0140E050E04E010894A5
:10530000811C911C25C0A801970180E0E81680E06F
:10531000F80681E0080780E0180720F02FEF3FEF44
:1053200040E050E0C501B601A90194010E94BC0B08
:10533000AC018FEF4F3F580781F029813A81C901B5
:10534000A0E0B0E0E81AF90A0A0B1B0BC20ED31E4C
:10535000E114F10401051105B1F6CA010F900F9097
:10536000CF91DF911F910F91FF90EF90DF90CF9041
:10537000BF90AF909F908F900895AF92BF92CF92C1
:10538000DF92EF92FF920F931F93A0908707B09048
:105390008807C0908907D0908A07C601B50120E030
:1053A00030E040E85FEB0E945A2D882331F1E09015
:1053B0007707F09078070091790710917A07C60176
:1053C000B501A80197010E94F52C5B016C01C80191
:1053D000B70120E030E040E054E30E94402E9B0102
:1053E000AC01C601B5010E943C2E181634F086E6C9
:1053F00092E0909362078093610780918B078823E6
:1054000031F086E692E090936207809361072091E5
:105410007B0730917C0740917D0750917E072F5F7D
:105420003F4F4F4F5F4F20937B0730937C07409354
:105430007D0750937E07211531054105510599F4EB
:1054400080917F0790918007A0918107B09182079A
:105450000196A11DB11D80937F0790938007A093B3
:105460008107B0938207E0908307F0908407009152
:10547000850710918607CA01B9010E948A2DA801EB
:1054800097010E94402E5B016C0160917F07709133
:10549000800780918107909182070E948A2DA80140
:1054A00097010E94402E20E030E040E85FE40E9437
:1054B000402E9B01AC01C601B5010E94F62C609301
:1054C0007707709378078093790790937A071F91F5
:1054D0000F91FF90EF90DF90CF90BF90AF90089525
:1054E0000895E1E6F7E08BE2DF011D928A95E9F786
:1054F00080E090E0A0E8BFEB809387079093880757
:10550000A0938907B0938A078CEA95ECA7E2B7E3EA
:105510008093830790938407A0938507B0938607B1
:1055200084E098EDA3E4B0EB809365079093660761
:10553000A0936707B093680789E29FEBAEEEB2E0F5
:105540008093690790936A07A0936B07B0936C07E9
:105550008AEA91E1ACE2B5E280936D0790936E0721
:10556000A0936F07B09370078DED96E3A2E7BAE9B9
:105570008093710790937207A0937307B093740799
:1055800081E597E090936407809363078FE497E049
:10559000909352078093510780EA93E090935007CD
:1055A00080934F077496F0935607E09355077097D2
:1055B000F0935407E09353077296F0935807E093E3
:1055C000570710925D0710925E0710925F071092C6
:1055D0006007EDE3F7E082E1DF011D928A95E9F7CC
:1055E000F0937607E09375078EE090E090933E0786
:1055F00080933D0788E093E09093400780933F07B6
:1056000084E293E0909342078093410780E493E023
:10561000909344078093430784E493E09093460774
:10562000809345078091600361E00E949E0A80910B
:10563000640361E00E949E0A10925D0710925E076B
:1056400010925F07109260078091680361E00E94EA
:105650009E0A80916C0361E00E949E0A8091700313
:1056600061E00E949E0A08956F927F928F929F92AE
:10567000AF92BF92CF92DF92EF92FF920F931F9360
:10568000E0907403F0907503009176031091770316
:10569000C801B70120E030E040E853E40E945A2DF1
:1056A00087FD02C06FEF10C0C801B70120E030E0F5
:1056B00040E050E00E943C2E87FF02C060E004C042
:1056C000C801B7010E945E2D809160030E94510BBA
:1056D000E0907403F09075030091760310917703C6
:1056E000C801B70120E030E040E853E40E945A2DA1
:1056F00087FD02C06FEF10C0C801B70120E030E0A5
:1057000040E050E00E943C2E87FF02C060E004C0F1
:10571000C801B7010E945E2D809164030E94510B65
:10572000A0905D07B0905E07C0905F07D0906007C3
:10573000C601B5010E948C2D3B014C0120918003D4
:105740003091810340918203509183030E945A2D2E
:1057500088235CF4D7FC09C0E0907803F0907903CB
:1057600000917A0310917B030AC00F2EF0E0EF2E18
:10577000F0E0FF2EF0E00F2FF0E01F2FF02D6091F2
:105780007C0370917D0380917E0390917F0320E0E4
:1057900030E040E85FE30E94F52C9B01AC01C401BE
:1057A000B3010E943C2E88234CF010925D071092AA
:1057B0005E0710925F07109260070DC00894A11C4D
:1057C000B11CC11CD11CA0925D07B0925E07C092B3
:1057D0005F07D0926007C801B70120E030E040E8E1
:1057E00053E40E945A2D87FD02C06FEF10C0C8011C
:1057F000B70120E030E040E050E00E943C2E87FFFF
:1058000002C060E004C0C801B7010E945E2D809113
:1058100068030E94510BC801B70120E030E040E866
:1058200053E40E945A2D87FD02C06FEF10C0C801DB
:10583000B70120E030E040E050E00E943C2E87FFBE
:1058400002C060E004C0C801B7010E945E2D8091D3
:105850006C030E94510BC801B70120E030E040E822
:1058600053E40E945A2D87FD02C06FEF10C0C8019B
:10587000B70120E030E040E050E00E943C2E87FF7E
:1058800002C060E004C0C801B7010E945E2D809193
:1058900070030E94510B1F910F91FF90EF90DF90CA
:1058A000CF90BF90AF909F908F907F906F90089512
:1058B0005F926F927F928F929F92AF92BF92CF92A0
:1058C000DF92EF92FF920F931F93DF93CF930F928C
:1058D000CDB7DEB70E943C0A80E090E060E070E067
:1058E0000E94FC120E94712A00919E0310919F0356
:1058F000C80186960E94FA1281E090E00E94061389
:105900001982F8018281938161E070E0AE014F5FFE
:105910005F4F0E9425138981882319F081E0F801E7
:1059200082A70E94FB12CC24DD2476013E0108945C
:10593000611C711C5524539431C00E94BD094B0158
:105940005C01DC01CB018C199D09AE09BF090A97E6
:10595000A105B10518F11982F8018281938161E0F6
:1059600070E0A3010E9412138981882311F0F801CD
:1059700052A60E94342B81E090E00E940913F801A6
:1059800046895789608D718D80E090E00E940F13E9
:105990000E94BD290E940C1375016401F8018081E9
:1059A0009181892B19F482A5882339F281E090E056
:1059B0000E94031368EE73E080E090E00E94E30928
:1059C0000E94702A80E090E00F90CF91DF911F91AC
:1059D0000F91FF90EF90DF90CF90BF90AF909F908E
:1059E0008F907F906F905F9008955058BB27AA27A3
:1059F0000ED008C1F9D030F0FED020F031F49F3F36
:105A000011F41EF4EEC00EF4E095E7FBE4C0E92FBC
:105A10000AD180F3BA17620773078407950718F055
:105A200071F49EF522C10EF4E0950B2EBA2FA02D35
:105A30000B01B90190010C01CA01A0011124FF273B
:105A4000591B99F0593F50F4503E68F11A16F04036
:105A5000A22F232F342F4427585FF3CF4695379535
:105A60002795A795F0405395C9F77EF41F16BA0BFA
:105A7000620B730B840BBAF09150A1F0FF0FBB1FA8
:105A8000661F771F881FC2F70EC0BA0F621F731FF1
:105A9000841F48F4879577956795B795F7959E3F4E
:105AA00008F0B3CF9395880F08F09927EE0F9795DC
:105AB000879508956CD008F481E00895BCD088F0F3
:105AC0009F5790F0B92F9927B751A0F0D1F0660FEA
:105AD000771F881F991F1AF0BA95C9F712C0B13005
